:1000000024C03EC03DC03CC03BC03AC039C038C02F
:1000100058C536C035C09FC233C032C031C030C0B1
:100020002FC02EC02DC0A5C52BC02AC06BC028C0B4
:1000300027C026C025C024C023C022C044C15FC140
:100040008CC1A7C1B4C14CC232C211241FBECFEFB4
:10005000D2E0DEBFCDBF11E0A0E0B1E0EAE0FAE11E
:1000600002C005900D92A831B107D9F721E0A8E1AF
:10007000B1E001C01D92A83DB207E1F70AD0C3CCA0
:10008000BFCFC29A82E080936400BA9AD49AB9989A
:10009000089580E091E09093D5018093D4012FEFF3
:1000A00089E698E1215080409040E1F700C00000CF
:1000B000E8DF86D27ED080E88FBB8FE091E09F930F
:1000C0008F93C9D941D84ED84DD8B0D033D3BCD6F0
:1000D0009DD898D247D876D80F900F90809137014D
:1000E000843110F02FD304D0E7D8DCD0CBD2F6CFB8
:1000F00084E1E3E2F1E0DF011D928A95E9F71092D5
:10010000370108951F920F920FB60F9211241F937B
:100110002F933F934F935F936F937F938F939F930F
:10012000AF93BF93CF93DF93EF93FF9358D2EC013C
:100130001091800080913701811104C0D093190182
:10014000C093180180911801909119010F968C1796
:100150009D0728F4CDDFD0931901C0931801809139
:100160003701843190F4E82FF0E0ED5DFE4F10830D
:100170008F5F80933701843141F4E3E2F1E0AAE834
:10018000B1E001900D928A95E1F7FF91EF91DF9137
:10019000CF91BF91AF919F918F917F916F915F911F
:1001A0004F913F912F911F910F900FBE0F901F9075
:1001B0001895109282008CE080938100E5E8F0E0D1
:1001C00088E1808386E080938400808180688083DA
:1001D00078948ECF9091860095FFFCCF809380001D
:1001E00080E090E008959091860095FFFCCF809389
:1001F00080000895EF92FF920F931F93CF93DF93A8
:100200007C018C01C62FD0E0C8018E199F098C1784
:100210009D072CF4F80181918F01E5DFF5CFDF9187
:10022000CF911F910F91FF90EF900895D59AD39A97
:10023000D69ADB98DD9ADE9A2FEF84E39CE021507A
:1002400080409040E1F700C00000DB9ADD98DE9A24
:100250002FEF84E39CE0215080409040E1F700C004
:100260000000DB9ADD9ADE982FEF84E39CE02150BA
:1002700080409040E1F700C00000ECE4F1E0118222
:1002800010821382128210861186128613861486BB
:10029000158682E086878787808B118A828B87E02C
:1002A000838B089580914C0190914D019DD1E091F7
:1002B0005E014E2F50E04730510508F04BC1FA0166
:1002C000E25EFF4F099420914E0130914F01821759
:1002D0009307F8F05BD766D771D784E1E8E3F1E0E4
:1002E000ACE4B1E001900D928A95E1F787E080934C
:1002F0005E0175D190934D0180934C01089520913A
:100300004E0130914F01A9015695479584179507E5
:10031000E8F480911D01813009F01CC110921D018B
:1003200080915401882319F090E028D701C02ED77E
:1003300080915501882319F090E02CD701C032D765
:1003400080915601882341F090E030C782179307CF
:1003500008F0A4C01BD726D731C780915401882349
:1003600019F090E00BD701C011D780915501882377
:1003700019F090E00FD701C015D78091560188235E
:1003800019F090E013D701C019D782E080935F0184
:10039000DFC020914E0130914F018217930728F45E
:1003A00080911D01811110C0D5C087E0D1C020917E
:1003B0004E0130914F018217930708F057C080918A
:1003C0001D01813009F0C6C010921D0190915401A9
:1003D00080915701891750F483E080935A0160910E
:1003E00052017091530180E087D50BC0981748F4F3
:1003F00082E080935A01609152017091530180E034
:100400001CD69091550180915801891750F483E0D2
:1004100080935B01609152017091530181E06CD532
:100420000BC0981748F482E080935B016091520101
:100430007091530181E001D690915601809159014C
:10044000891748F483E080935C01609152017091B8
:10045000530182E051C5981708F07CC082E0809378
:100460005C016091520170915301E7C58091540184
:1004700090915701909354018093570180915501B9
:1004800090915801909355018093580180915601A5
:10049000909159019093560180935901A0D0909367
:1004A0004D0180934C0181E080931D0108952091BE
:1004B0004E0130914F012817390708F04BC0809149
:1004C0005D01811104C081E080935D0102C0109242
:1004D0005D0185E080935E0186E080935F01089571
:1004E0007ED090934D0180934C0180915D018111EC
:1004F00013C080915401882319F090E03FD601C0C9
:1005000045D680915501882319F090E043D601C06B
:1005100049D68091560112C080915701882319F065
:1005200090E02CD601C032D680915801882319F072
:1005300090E030D601C036D680915901811102C0B9
:100540003DD602C090E032D685E080935F0186E020
:1005500080935E0108951F920F920FB60F9211249F
:100560002F933F934F935F936F937F938F939F93BB
:10057000AF93BF93EF93FF932CD280911C018C5FBC
:1005800080931C0180911C01811109C080911A0186
:1005900090911B01019690931B0180931A01FF918A
:1005A000EF91BF91AF919F918F917F916F915F91EB
:1005B0004F913F912F910F900FBE0F901F90189564
:1005C00010BE13BE12BE83B5817883BD83B5816032
:1005D00083BD82E083BF89B7816089BF0895809120
:1005E0001A0190911B01089520911A0130911B016D
:1005F0002817390710F421503109A901481B590B5C
:10060000CA0108951092640110926601109265016A
:10061000109268011092670108950F931F93CF9372
:100620008C01C62F8091650190916601DDDF2091DC
:1006300067013091680182179307D0F4980140E078
:1006400050E060E472E48FE090E0E9D635BD24BD6F
:10065000C90166E470E083D624E630E0B901A9D68A
:10066000CB016C2F70E07BD6B901A3D67BBD6ABDF0
:10067000CF911F910F91089580E090E09EC181E09D
:1006800090E09BC18091650190916601ADDF209162
:100690006701309168018217930798F4809169018E
:1006A000813081F41092690180916201909163011F
:1006B000892B39F0E1DF64E680916201909163015A
:1006C000ACCFDDCF08958AE0EAE6F1E0DF011D92CC
:1006D0008A95E9F70895EAE8F1E02DE931E080E054
:1006E00090E04191840F911D2E173F07D1F78F7332
:1006F000992790919D01891B0895AAE8B1E08C91FA
:10070000EAE6F1E0808353969C9191838F73818711
:100710006AE0CF016FDDD7CF5ED52EE330E040E059
:1007200050E02ED628EE33E040E050E056D6CA0125
:10073000B901089584E1EAE8F1E0DF011D928A95AC
:10074000E9F7C1CFCF92DF92EF92FF92C4DF811120
:10075000F9C080918A01853609F4F9C0873509F01E
:1007600044C080918B01853489F038F48134C9F01C
:10077000843409F0ECC081E011C0833541F1883543
:1007800061F0883409F0E3C082E008C01092D10122
:10079000FF90EF90DF90CF90B0CF84E08093D101B5
:1007A000F7CF4DD56B017C0128D580936C01C70133
:1007B000B60125D580936D01C701B60121D580937F
:1007C0006E01C701B6011ED580936F01E1CF209164
:1007D0008F0140918E0160918D0180918C015DD5DA
:1007E0008CDF82E08093D101B2C08C3409F073C0F9
:1007F00084E1ECE4F1E0A8E3B1E001900D928A9588
:10080000E1F781E080931D0180918C018093540178
:1008100080918D018093550180918E0180935601C6
:10082000DEDE90934D0180934C0120919501409123
:10083000940160919301809192016EDF70934F015A
:1008400060934E016091930180919201BFD4909387
:100850005101809350016091950180919401B6D42B
:10086000909353018093520180911E01863411F0C0
:10087000863609F4ECD280918B0180931E0183357A
:10088000B1F038F4823489F0863409F060C084E035
:1008900013C0823639F0863671F0843509F057C0BE
:1008A00085E00AC010925E0173CF81E005C082E04E
:1008B00080935E016DCF83E080935E0180918F0114
:1008C000809357018091900180935801809191010C
:1008D000809359015DCF803521F581E090E09093C0
:1008E0006A01809369017BDE9093660180936501C4
:1008F00080918C0190918D0198278927982790935A
:100900006301809362012091910140919001609177
:100910008F0180918E0100DF709368016093670101
:1009200037CF8F34A1F480918B01863509F030CF19
:1009300081E380936C018EE280936D0182E380936A
:100940006E0126CFFF90EF90DF90CF90F3CEFF9017
:10095000EF90DF90CF900895E7E6F0E0108280817D
:1009600080648083E8E6F0E0108280818A60808382
:10097000089590916600811102C0946003C0813097
:1009800019F49B7F90936600089590916600811101
:1009900002C0906103C0813019F49F7E909366007D
:1009A000089590916600811102C0906203C0813069
:1009B00019F49F7D909366000895909166008111CF
:1009C00002C0986003C0813019F4977F909366004D
:1009D00008958091A501811173C08091A701209194
:1009E000A601811132C06091A8017091A901213046
:1009F000D9F48091AA019091AB0101969093AB013B
:100A00008093AA01D6D4892B09F05AC08CB78823C9
:100A100011F0815054C01092AB011092AA012093A2
:100A2000A50120930E0108958CB7282F30E02617DA
:100A3000370710F0861B43C01CBE1092AB0110920A
:100A4000AA0181E08093A50128C0213049F5809159
:100A5000AA019091AB0101969093AB018093AA01FA
:100A60006091A8017091A901A4D4892B49F58CB794
:100A700090915A01923019F49091570102C09091CF
:100A80005401891710F48F5F1AC01092AB011092B5
:100A9000AA0181E08093A50183E080930E0108956F
:100AA0009CB780915A01823019F48091570102C09D
:100AB00080915401981748F78091A801890F8CBF45
:100AC00008951F920F920FB60F9211242F933F9308
:100AD0005F936F937F938F939F93AF93BF93F8949C
:100AE00091E09EB98091B301811134C08091B5012C
:100AF000811130C02091B4016091B6017091B701AD
:100B00002130C1F48091B8019091B9010196909380
:100B1000B9018093B8014DD4892BE1F48AB58823BB
:100B200011F081500EC01092B9011092B8012093BB
:100B3000B30110C08AB5282F30E02617370718F008
:100B4000861B8ABD07C01ABC1092B9011092B80169
:100B50009093B3017894BF91AF919F918F917F91C2
:100B60006F915F913F912F910F900FBE0F901F904B
:100B700018951F920F920FB60F9211242F933F9347
:100B80005F936F937F938F939F93AF93BF93F894EB
:100B900091E090BB80919E0181117BC08091A0016A
:100BA00020919F01811139C06091A1017091A20132
:100BB0002130E1F48091A3019091A40101969093DA
:100BC000A4018093A301F5D3892B09F062C0809121
:100BD000C40090915901981710F4815058C0109298
:100BE000A4011092A30120939E0113C08091C40020
:100BF000282F30E02617370710F0861B48C0809159
:100C000059018093C4001092A4011092A301909303
:100C10009E0185E080930E013CC0213041F580911A
:100C2000A3019091A40101969093A4018093A30144
:100C30006091A1017091A201BCD3892B51F58091E3
:100C4000C40090915C01923019F49091590102C056
:100C500090915601891710F48F5F19C01092A4016A
:100C60001092A30181E080939E0187E0D3CF909101
:100C7000C40080915C01823019F48091590102C056
:100C800080915601981750F78091A101890F8093A8
:100C9000C4008091AC0181117CC08091AE01209193
:100CA000AD0181113AC06091AF017091B001213066
:100CB000E1F48091B1019091B20101969093B2015B
:100CC0008093B10176D3892B09F063C08091C20073
:100CD00090915801981710F4815059C01092B201A8
:100CE0001092B1012093AC0114C08091C200282F52
:100CF00030E02617370710F0861B49C08091580155
:100D00008093C2001092B2011092B10181E08093F1
:100D1000AC0189E080930E013CC0213041F5809107
:100D2000B1019091B20101969093B2018093B1010B
:100D30006091AF017091B0013CD3892B51F5809146
:100D4000C20090915B01923019F49091580102C059
:100D500090915501891710F48F5F19C01092B2015C
:100D60001092B10181E08093AC018BE0D3CF9091E0
:100D7000C20080915B01823019F48091580102C059
:100D800080915501981750F78091AF01890F80939A
:100D9000C2007894BF91AF919F918F917F916F9195
:100DA0005F913F912F910F900FBE0F901F9018955C
:100DB00080B7836080BF80B7806380BF82EC8FBDC7
:100DC00081EF8093CA008AE18EBD8AE08093C900DA
:100DD00083B78F7B83BF82B58F7782BDE8ECF0E06D
:100DE00080818F7380830895789A08957898089504
:100DF000889A089588980895CF93DF9325EA31E083
:100E000087E0F901982F11929A95E9F7CEE9D1E0A0
:100E1000FE01982F11929A95E9F7ACEAB1E0FD0135
:100E2000982F11929A95E9F743EB51E0FA0111924C
:100E30008A95E9F781E0F901808388838C93FA0130
:100E40008083DF91CF910895B3DF86DDD5CFD4DFE6
:100E50008CE080930E0110922201109221011092D9
:100E600020011CBE1092C3001092C2001092C50057
:100E70001092C40081E07DDD81E087DD81E091DDBD
:100E8000B5DFB8CF813041F028F0823051F08330A7
:100E900069F008956CBF08951092C3006093C2007A
:100EA00008951092C5006093C40008951BBC6ABDEC
:100EB00008959C01220F331F220F331F6AE070E058
:100EC0004ED26BE670E075D2C901861B970B089570
:100ED0009C01FA0170E06817790720F46AD221E0DA
:100EE000208304C0CB01B90164D21082892B11F098
:100EF0006F5F7F4FCB0108951F93CF93DF931F92B6
:100F0000CDB7DEB7182FCB01D4DF9C01113091F1A2
:100F100020F0123009F45EC08BC010915401909102
:100F20005701911718F4612F691B06C0191708F0B3
:100F30007FC0692F611B192FAE014F5F5F4FC90141
:100F4000C7DF9093A9018093A80189818093A601AE
:100F50001092A7011092AB011092AA011092A50164
:100F60001CBF80E006DD40DF809122018F5F80930F
:100F700022015EC01091550190915801911718F40B
:100F8000612F691B06C0191708F052C0692F611B39
:100F9000192FAE014F5F5F4FC9019ADF9093B001E7
:100FA0008093AF0189818093AD011092AE011092C0
:100FB000B2011092B1011092AC011092C3001093D3
:100FC000C20080E0E2DC14DF809121018F5F80931A
:100FD00021012EC01091560190915901911718F4DA
:100FE000612F691B05C0191718F5692F611B192F8F
:100FF000AE014F5F5F4FC9016BDF9093A2018093F9
:10100000A101898180939F011092A0011092A401F7
:101010001092A30110929E011092C5001093C4007B
:1010200080E0BFDCE5DE809120018F5F80932001AE
:101030000F90DF91CF911F9108951F93CF93DF936E
:101040001F92CDB7DEB7182FCB0133DF113051F12E
:1010500020F0123009F44DC072C060915701662330
:1010600009F46DC0AE014F5F5F4F32DF9093A9016D
:101070008093A80189818093A60181E08093A701D4
:101080001092AB011092AA011092A5018091540117
:101090008CBF80E06EDCA8DE809122018F5F8093A0
:1010A00022014DC060915801662309F448C0AE0189
:1010B0004F5F5F4F0DDF9093B0018093AF01898147
:1010C0008093AD011093AE011092B2011092B10164
:1010D0001092AC01809155011092C3008093C20020
:1010E00080E053DC85DE809121018F5F80932101B8
:1010F00026C060915901662311F1AE014F5F5F4F29
:10110000E7DE9093A2018093A101898180939F01E2
:1011100081E08093A0011092A4011092A30110928B
:101120009E01809156011092C5008093C40080E01A
:1011300038DC5EDE809120018F5F809320010F906C
:10114000DF91CF911F910895C29A82E0809364004D
:10115000BA9AD59AD39AD69AD49AB998DB98DD9848
:10116000DE9A0895DB9ADD9ADE9ADC9A81E001DC52
:1011700081E00BDC81E015DC81E01FCCCF93C82F30
:1011800080E0F7DB6C2F80E0CF917CCE81E0F1DB5B
:10119000DB9A0895CF93C82F80E0F7DB6C2F81E0B6
:1011A000CF9170CE81E0F1DBDD9A0895CF93C82F07
:1011B00080E0F7DB6C2F82E0CF9164CE81E0F1DB41
:1011C000DE9A089581E0F9DBDC9A089570E09B01D6
:1011D000382BC90108950F931F93962F342F422F58
:1011E00050E060E070E0532B692B8A019B01382BA3
:1011F000C901B8011F910F910895892F089508958D
:10120000872F0895862F0895C29A0895EBEBF1E099
:1012100088EF99EDA0E0B0E080879187A287B3873F
:1012200015861486178616868CE692E0918B808B45
:10123000138A128A158A148A82E0868BE5CFCF92B0
:10124000DF92EF92FF92C090C301D090C401E09072
:10125000C501F090C6018091C7019091C801C4D921
:10126000A7019601281B390B41095109CA01B9018F
:101270002EE330E040E050E0B0D08091D1018130E9
:1012800019F0B901CA0104C060E070E080E090E0AC
:10129000FF90EF90DF90CF9008959DDF2EE330E038
:1012A00040E050E06DD06093C3017093C40180931F
:1012B000C5019093C60108958091D101823009F44F
:1012C00042C018F4882369F045C0833059F1843056
:1012D00009F040C084D99093CE018093CD0183E082
:1012E0001EC08091BA01813029F479D99093C80148
:1012F0008093C7018091C7019091C80175D9A0E082
:10130000B0E04091C3015091C4016091C50170915A
:10131000C601481759076A077B07E0F484E0809309
:10132000D10118C08091CD019091CE015DD920915D
:10133000CB013091CC012817390760F481E080930C
:10134000D10162DF07C04BD99093C8018093C701D8
:101350001092D1018091D1018093BA0108950024A7
:10136000552704C0080E591F880F991F009729F0B0
:1013700076956795B8F37105B9F7802D952F089587
:10138000EE27FF27AA27BB2708C0A20FB31FE41F21
:10139000F51F220F331F441F551F9695879577958C
:1013A000679598F37040A9F7009799F7BD01CF01B1
:1013B0000895AA1BBB1B51E107C0AA1FBB1FA6179C
:1013C000B70710F0A61BB70B881F991F5A95A9F7EE
:1013D00080959095BC01CD010895A1E21A2EAA1B1B
:1013E000BB1BFD010DC0AA1FBB1FEE1FFF1FA217D5
:1013F000B307E407F50720F0A21BB30BE40BF50BD2
:10140000661F771F881F991F1A9469F7609570955A
:10141000809590959B01AC01BD01CF010895052EEB
:1014200097FB16F400940FD057FD05D0D6DF07FCCC
:1014300002D046F408C050954095309521953F4F15
:101440004F4F5F4F089590958095709561957F4FB0
:101450008F4F9F4F0895A0E0B0E0E0E3FAE0ACC208
:10146000AE014B5F5F4FFA0161917191AF018091C5
:10147000D4019091D50102D0E2E0BAC2ABE0B0E075
:10148000E3E4FAE089C26C017B018A01FC01178266
:101490001682838181FFC0C1CE0101963C01F60115
:1014A0009381F70193FD859193FF81917F018823BB
:1014B00009F4AEC1853239F493FD859193FF819192
:1014C0007F01853221F4B60190E0C1D1E8CF912CA3
:1014D000212C312CFFE1F315E0F08B3279F038F458
:1014E000803279F08332A9F4232D206110C08D322F
:1014F00059F0803371F4232D216009C0832D82605F
:10150000382EE32DE46022C0F32DF86025C0322E82
:1015100027C037FC2DC020ED280F2A3088F436FE76
:1015200006C0892D6AE02FD2922E980E19C0822D06
:101530006AE029D2222E280E832D8062382E10C018
:101540008E3231F436FC64C1E32DE0643E2E08C0D7
:101550008C3621F4F32DF0683F2E02C0883641F41A
:10156000F70193FD859193FF81917F018111B2CFA6
:10157000982F9F7D9554933028F40C5F1F4F2FE3D5
:1015800029830DC0833631F0833771F0833509F03C
:1015900055C020C0F801808189830E5F1F4F8824C9
:1015A0008394912C530112C02801F2E04F0E511C7C
:1015B000F801A080B18036FE03C0692D70E002C042
:1015C0006FEF7FEFC50138D14C018201F32DFF771A
:1015D0003F2E15C0280122E0420E511CF801A080C8
:1015E000B18036FE03C0692D70E002C06FEF7FEF5F
:1015F000C50117D14C01F32DF0683F2E820133FC59
:1016000019C0822D90E088169906A0F4B60180E2F8
:1016100090E01DD12A94F5CFF50137FC859137FE76
:1016200081915F01B60190E012D121102A9421E04E
:10163000821A91088114910479F7E1C0843611F07F
:10164000893639F5F80137FE07C0608171818281E2
:1016500093810C5F1F4F08C060817181072E000CC1
:10166000880B990B0E5F1F4FF32DFF763F2E97FFD0
:1016700009C090958095709561957F4F8F4F9F4FD2
:10168000F0683F2E2AE030E0A3011DD1882E861895
:1016900044C0853731F4232D2F7EB22E2AE030E06E
:1016A00025C0932D997FB92E8F36C1F018F4883557
:1016B00079F0AEC0803719F0883721F0A9C0E92F42
:1016C000E061BE2EB4FE0DC0FB2DF460BF2E09C03C
:1016D00034FE0AC0292F2660B22E06C028E030E072
:1016E00005C020E130E002C020E132E0F801B7FEA1
:1016F00007C060817181828193810C5F1F4F06C09A
:101700006081718180E090E00E5F1F4FA301DBD00C
:10171000882E8618FB2DFF773F2E36FE0DC0232D19
:101720002E7FA22E891458F434FE0BC032FC09C05F
:10173000832D8E7EA82E05C0B82CA32C03C0B82CF8
:1017400001C0B92CA4FE0FC0FE01E80DF11D80817F
:10175000803321F49A2D997EA92E09C0A2FE06C0DD
:10176000B394B39404C08A2D867809F0B394A3FC93
:1017700010C0A0FE06C0B21480F4280C922C9B1856
:101780000DC0B21458F4B60180E290E060D0B3947A
:10179000F8CFB21418F42B1802C0982C212CA4FEF8
:1017A0000FC0B60180E390E052D0A2FE16C0A1FCAB
:1017B00003C088E790E002C088E590E0B6010CC065
:1017C0008A2D867851F0A1FE02C08BE201C080E232
:1017D000A7FC8DE2B60190E03AD0891430F4B6014E
:1017E00080E390E034D09A94F8CF8A94F301E80D26
:1017F000F11D8081B60190E02AD08110F6CF222021
:1018000009F44DCEB60180E290E021D02A94F7CFC2
:10181000F6018681978102C08FEF9FEF2B96E2E160
:10182000D7C0FC010590615070400110D8F7809539
:1018300090958E0F9F1F0895FC016150704001909C
:101840000110D8F7809590958E0F9F1F08950F93E4
:101850001F93CF93DF93FB01238121FD03C08FEF03
:101860009FEF2CC022FF16C046815781248135810D
:101870004217530744F4A081B1819D012F5F3F4F70
:10188000318320838C93268137812F5F3F4F3783AD
:10189000268314C08B01EC01FB010084F185E02D4F
:1018A0000995892BE1F6D80116968D919C91179791
:1018B000019617969C938E931697CE01DF91CF9148
:1018C0001F910F910895FA01AA27283061F1203164
:1018D00091F1E8946F936E7F6E5F7F4F8F4F9F4FB4
:1018E000AF4FB1E040D0B4E03ED0670F781F891F02
:1018F0009A1FA11D680F791F8A1F911DA11D6A0FD4
:10190000711D811D911DA11D22D009F468943F9184
:10191000062E000C3019000C000C3019305D31938C
:10192000CEF6CF010895462F4770405D4193B3E056
:101930000FD0C9F7F6CF462F4F70405D4A3318F0ED
:10194000495D31FD4052419302D0A9F7EACFB4E09E
:10195000A6959795879577956795BA95C9F7009756
:101960006105710508959B01AC010A2E06945795F7
:10197000479537952795BA95C9F7620F731F841F4E
:10198000951FA01D0895002480FD060E660F11F01E
:101990008695D1F7802D08952F923F924F925F92B6
:1019A0006F927F928F929F92AF92BF92CF92DF926F
:1019B000EF92FF920F931F93CF93DF93CDB7DEB7D4
:1019C000CA1BDB0B0FB6F894DEBF0FBECDBF099468
:1019D0002A88398848885F846E847D848C849B84BF
:1019E000AA84B984C884DF80EE80FD800C811B81CD
:1019F000AA81B981CE0FD11D0FB6F894DEBF0FBEFC
:0A1A0000CDBFED010895F894FFCF6B
:101A0A000000000300000000EA00000000000C5380
:081A1A0051412054696D650083
:00000001FF
